:020000040800F2
:10000000000800209D010008EB030008CF03000852
:10001000E7030008E50100082107000800000000D0
:10002000000000000000000000000000B90500080A
:10003000E90100080000000011040008A9060008FA
:10004000B7010008B7010008B7010008B7010008B0
:10005000B7010008B7010008B7010008B7010008A0
:10006000B7010008B7010008B7010008B701000890
:10007000B7010008B7010008B7010008B701000880
:10008000B7010008B7010008B7010008B701000870
:10009000B7010008B7010008B7010008B701000860
:1000A000B7010008B7010008B7010008B701000850
:1000B000B7010008B7010008B7010008B701000840
:1000C000B7010008B7010008B7010008B701000830
:1000D000B7010008B7010008B7010008B701000820
:1000E000B7010008B7010008B7010008B701000810
:1000F000B7010008B7010008B7010008B701000800
:10010000B7010008B7010008B7010008B7010008EF
:10011000B7010008B7010008B7010008B7010008DF
:10012000B7010008B7010008B7010008B7010008CF
:10013000B7010008B7010008B7010008B7010008BF
:10014000B7010008B7010008B7010008B7010008AF
:10015000B7010008B7010008B7010008B70100089F
:10016000B7010008B7010008B7010008B70100088F
:10017000B7010008B7010008B7010008B70100087F
:10018000B7010008B7010008DFF80CD000F018F83C
:10019000004800474507000800080020064880473F
:1001A00006480047FEE7FEE7FEE7FEE7FEE7FEE75C
:1001B000FEE7FEE7FEE7FEE7B90600088901000852
:1001C000064C074D06E0E06840F0010394E80700A4
:1001D00098471034AC42F6D3FFF7DAFFC80700089F
:1001E000D807000800BFFEE7704700000146086816
:1001F000401C70B108686FF31300B0F1005F08D1C4
:100200004868401C28B1054A48681040044A90429A
:1002100001D0002070470120FCE700000100F0FF42
:100220000100000830B10749096841F48061054ABE
:10023000116005E00349096821F48061014A1160F9
:1002400070470000003C024070B504460A46002694
:10025000092502B909E0012A01D1160205E0022AA6
:1002600001D1160201E04FF4407600F09FF80546F8
:10027000092D28D11548006820F440701349086002
:1002800008460068304308600846006820F0F8001F
:1002900008600846006844F0020108430B49086002
:1002A0000846006840F48030086000F07FF805469A
:1002B0000648006820F0020004490860084600680B
:1002C00020F0F8000860284670BD0000103C024095
:1002D00009201349096801F48031B1F5803F01D14B
:1002E00001201CE00E49096801F0100109B1062047
:1002F00015E00B49096801F4807109B102200EE094
:100300000749096801F0E00109B1072007E0044945
:10031000096801F0020109B1082000E009207047D6
:100320000C3C02400348006840F00040014908606E
:1003300070470000103C024030B502460C460925CB
:1003400000F034F80546092D19D10E48006820F454
:1003500040700C4908600846006840F4007008606E
:100360000846006840F001000860146000F01EF8C4
:1003700005460448006820F001000249086028464C
:1003800030BD0000103C02400548006800F000400D
:1003900028B1044802490C390860034808607047D6
:1003A000103C024023016745AB89EFCD08B5092019
:1003B0000090FFF78DFF009002E0FFF789FF0090AB
:1003C0009DF800000128F8D09DF8000008BD00BF8E
:1003D000FEE770B5044665682E46206880F30888FD
:1003E00000BFB04770BD00BFFEE7704710B50021E9
:1003F0004FF0006000F002F810BD0000024A0A4011
:100400000243024B1A60704780FFFF1F08ED00E0B7
:100410007047704700BF00BF00BF00BF00BFBFF301
:100420004F8F00BF00BF00BF0948006800F4E060C4
:1004300008490843001D0649086000BF00BF00BF0F
:10044000BFF34F8F00BF00BF00BF00E000BFFDE75C
:100450000CED00E00000FA0501461C48814201D283
:10046000002070471A48814201D20820F9E7194854
:10047000814201D21020F4E71748814201D21820AE
:10048000EFE71648814201D22020EAE71448814272
:1004900001D22820E5E71348814201D23020E0E76D
:1004A0001148814201D23820DBE71048814201D255
:1004B0004020D6E70E48814201D24820D1E70D48BE
:1004C000814201D25020CCE75820CAE70040000802
:1004D0000080000800C000080000010800000208B9
:1004E00000000408000006080000080800000A08D0
:1004F00000000C0800000E0830B503460C461546F7
:10050000002206E0184600F007F844F822001B1D00
:10051000521CAA42F6D330BD01460868704700005D
:100520002DE9F04704460E4617464FF0090800250E
:10053000A946B4F1006F02D304F0030008B1BDE88E
:10054000F087FFF721FF0020FFF76CFE254604EB44
:1005500087091848854215D211E02846FFF7DCFFCD
:10056000401C58B12846FFF777FF82460221FFF76B
:100570006BFE8046B8F1090F01D002E02D1D4D45FC
:10058000EBD300BFB8F1090F0CD108E02046316869
:10059000FFF7D2FE092800D003E0241D361D4C458C
:1005A000F4D300BF0120FFF73DFEFFF7BBFE00BF05
:1005B000C5E700000000FF1F704700000CB50020D9
:1005C000019000903448006840F48030324908605F
:1005D00000BF3148006800F4003000900198401CD2
:1005E0000190009818B90198B0F5A04FF1D12A48B0
:1005F000006800F4003010B10120009001E00020FC
:1006000000900098012846D123484030006840F00F
:1006100080502149403108602048006840F4404043
:100620001E4908601C48083000681B4908310860F2
:100630000846006840F4004008600846006840F43E
:10064000A05008601648091F0860081F006840F0A5
:100650008070091F086000BF0F48006800F000703C
:100660000028F9D040F205700E4908600A480830A9
:10067000006820F003000849083108600846006857
:1006800040F00200086000BF03480830006800F036
:100690000C000828F8D10CBD003802400070004062
:1006A00019544007003C0240704710B5FFF7B1FEF7
:1006B000FFF79CFE10BD000010B51548006840F41F
:1006C0007000134908601348006840F001001149A8
:1006D000086000200F49083108600E4800680E4984
:1006E00008400C4908600D48091D0860081F006893
:1006F00020F48020091F0860002006490C310860A2
:10070000FFF75CFF4FF0006001498039086010BDC1
:1007100088ED00E000380240FFFFF6FE10300024B4
:1007200000BFFEE702E008C8121F08C1002AFAD184
:1007300070477047002001E001C1121F002AFBD161
:100740007047000008B5FFF7B0FF012269460C486A
:10075000FFF7D2FE0098B0F1553F05D100F014F834
:10076000012801D0FFF756FE064C2046FFF73EFD5C
:10077000012802D12046FFF72CFE00BFFEE7000053
:1007800000000208004000082DE9F0410B4E0C4F1C
:1007900000240EE0A50270194FF480720949FFF79A
:1007A000ABFE78194FF480720649FFF7B9FE601C62
:1007B000C4B2302CEEDB0120BDE8F081000001085E
:1007C0000040000800000020D807000800000020BA
:0807D0000008000034070008D6
:040000050800018965
:00000001FF
